:1000000012C02CC02BC02AC029C028C027C026C0BF
:1000100025C0ABC323C022C021C020C01FC01EC04A
:100020001DC01CC01BC011241FBECFE5D4E0DEBF25
:10003000CDBF10E0A0E6B0E0EAE2F2E102C0059038
:100040000D92AA36B107D9F723E0AAE6B0E001C0C5
:100050001D92AB3DB207E1F768D5E5C8D1CF9098C6
:10006000889A0895DC01CB01880F991F860F971F8E
:100070004FB7F89432B33E7F232F21606D9176E025
:1000800022BB000067FF32BB660F00007A9532BBCF
:10009000B9F7000022BB000067FF32BB00C00000C0
:1000A00032BB019722BB000066FF32BB76E06D9148
:1000B00032BB31F74FBF089585E083BF81E089BF30
:1000C0007894089581B3817E81BB81B3806681BBC2
:1000D00082B38F7982BB87B3876F87BB88B3887001
:1000E00088BB84B38F6384BB85B3807C85BB089554
:1000F0008F929F92AF92BF92CF92DF92EF92FF9238
:10010000BC01990F880B990B44D76B017C0120E04F
:1001100030E048EC52E4F1D720E030E048EC52E423
:100120009DD604D74B015C017093D1036093D0033B
:1001300020E030E040E751E4C701B601DED720E01F
:1001400030E048EC52E48AD6F1D67093D90360933C
:10015000D80320E030E040EA50E4C701B601CDD733
:1001600020E030E048EC52E479D6E0D67093D30337
:100170006093D20320E030E040EF51E4C701B601C4
:10018000BCD720E030E048EC52E468D6CFD670937C
:1001900083006093820090928E0080928D0085E4AF
:1001A00090E09093CC038093CB038AE890E0909307
:1001B00081008093800080E090E0A2E8B2E4809328
:1001C000850090938600A0938700B093880080E01C
:1001D00090E0A6E6B2E48093890090938A00A09311
:1001E0008B00B0938C008EEF91E09093CF038093BF
:1001F000CE03FF90EF90DF90CF90BF90AF909F9095
:100200008F900895FC018091D00381838091D80361
:1002100080838091D20382830895FC0180918D00B8
:1002200080838091820081831282089565E070E06E
:10023000E9DF089565E070E0F0DF0895E1E9F0E0BE
:100240008DEC93E0DF0111971C9211971C921082A4
:100250003396E817F907B1F764E171E08FE890E0B1
:1002600001DF0895EF92FF920F931F93CF93DF93D7
:100270008091CB039091CC03181619060CF044C062
:100280000F2EFFE8EF2EF0E0FF2EF02D08EC13E02C
:10029000C0E0D0E0C701CEDFC801CCDF20918000F4
:1002A000309181002C1B3D0B21503109C901880F71
:1002B000991F820F931F81579F4FB8DF8091800055
:1002C000909181008C0F9D1F9C01220F331F820F84
:1002D000931F81579F4FAADF64E171E08FE890E0A0
:1002E000C1DE8FED9EE20197F1F700C0000021967C
:1002F00093E0E90EF11C035011098091CB0390911A
:10030000CC03C817D90734F2DF91CF911F910F9119
:10031000FF90EF9008952F923F924F925F926F92CD
:100320007F928F929F92AF92BF92CF92DF92EF9285
:10033000FF920F931F93CF93DF93CDB7DEB76497F0
:100340000FB6F894DEBF0FBECDBF6B017C010091EC
:10035000800010918100B801012E000C880B990BD0
:1003600018D6A7019601C9D62AE037ED43E25CE32F
:10037000C4D6DCD57E836D83101611060CF034C113
:100380008B010150110925E030E07901E61AF70AE6
:100390000F2EF0E98F2EF0E09F2EF02D0F2EFFE8AC
:1003A000AF2EF0E0BF2EF02D0F2EF9EC2F2EF3E044
:1003B0003F2EF02D0F2EF8ECCF2EF3E0DF2EF02D98
:1003C0000F2EF1E96F2EF0E07F2EF02D0F2EFAECBC
:1003D0004F2EF3E05F2EF02D1A82198283E191E017
:1003E0009B01861B970B220F331F260F371FF90126
:1003F000E157FF4FF887EF833196FC87EB879C012D
:10040000220F331F820F931F9C0121573F4F3A87C2
:1004100029872F5F3F4F3E872D874F8158854E5F3D
:100420005F4F588B4F8789859A8502969A8B898B67
:10043000E0E0F0E0FC8BEB8BC20121011301340101
:100440004C0104301105A0F5B7010F2C000C880BEE
:10045000990B9FD520E030E040EA50E4FFD4698357
:100460007A838B839C832091850030918600409114
:1004700087005091880041D65ED5F3016083F20178
:1004800060832091890030918A0040918B005091C7
:100490008C0069817A818B819C812FD64CD5F501A6
:1004A0006083F6016083F1011082F401108276C04E
:1004B000C70106970497B0F5B8016A5F7F4F072E12
:1004C000000C880B990B65D520E030E040EA50E441
:1004D000C5D469837A838B839C8320918500309176
:1004E0008600409187005091880007D624D5F301FB
:1004F0006083F20160832091890030918A004091ED
:100500008B0050918C0069817A818B819C81F5D51B
:1005100012D5F5016083F6016083F1011082F401C8
:1005200010823CC02B893C894D815E8124173507A0
:1005300029F56091850070918600809187009091E7
:100540008800F9D4EB85FC856083ED85FE856083AA
:100550006091890070918A0080918B0090918C004D
:10056000EAD4EF81F8856083E985FA856083EF85B9
:10057000F8891082E989FA89108210C02D813E81A4
:100580004B895C89421753072CF4C50153DEC60121
:1005900051DE04C0C5014ADEC60148DE8B899C8954
:1005A00001969C8B8B8B015011099FEFE91AF90A78
:1005B000E3E06E0E711CF3E0AF0EB11C23E0421AB3
:1005C000510833E0C31AD10843E0240E311C53E034
:1005D000851A91088091800090918100EB89FC89B7
:1005E000E817F9070CF42DCF64E171E08FE890E093
:1005F00039DD64960FB6F894DEBF0FBECDBFDF9134
:10060000CF911F910F91FF90EF90DF90CF90BF900F
:10061000AF909F908F907F906F905F904F903F90A2
:100620002F9008958F929F92AF92BF92CF92DF92B8
:10063000EF92FF92CF93DF934B015C016CDE8FE171
:100640009EE40197F1F700C00000C0E0D0E0BE01D9
:100650000D2E000C880B990B9CD49B01AC01C5019D
:10066000B40193D36B017C0120E030E0A90141D5B6
:1006700088234CF0C701B6014EDE8FE19EE401975E
:10068000F1F700C000002196C530D10501F7C0E0A8
:10069000D0E020E030E040EA50E4C501B40175D379
:1006A0006B017C01BE010D2E000C880B990B71D4DF
:1006B0009B01AC01C701B60169D36B017C0120E04D
:1006C00030E048EC52E4C6D318164CF0C701B6012E
:1006D00022DE8FE19EE40197F1F700C00000219631
:1006E000CA30D105B1F6C0E0D0E020E030E040EA09
:1006F00050E4C501B4014AD36B017C01BE010D2E4B
:10070000000C880B990B45D49B01AC01C701B601C5
:100710003CD36B017C0120E030E0A901EAD48823BE
:100720004CF0C701B601F7DD8FE19EE40197F1F7C8
:1007300000C000002196C530D105B9F6DF91CF91F8
:10074000FF90EF90DF90CF90BF90AF909F908F90F1
:1007500008959C0190917100992331F02F3F314011
:100760001CF0C09A1092710008951F920F920FB65C
:100770000F9211240F931F932F933F934F935F93E7
:100780006F937F938F939F93AF93BF93CF93DF9399
:10079000EF93FF9380917E0090917F00EC01219672
:1007A000D0937F00C0937E002091750021110CC072
:1007B000CB3322E0D20740F010927F0010927E00EF
:1007C00081E0809375009CC120917400211112C0BA
:1007D000209163003091640021503109309364000E
:1007E00020936300232B09F08BC121E02093740038
:1007F00020937C00819B1AC010926D0020916E00A6
:10080000211103C021E020936F001092600021E0CD
:1008100020937C0020917100222319F0CE0199DFF2
:100820006FC190937F0080937E006AC19E01A9E80A
:10083000B8E8D9D4929582958F7089279F708927BF
:100840004EE1489F9001499F300D112411E0C217DD
:10085000D30709F010E081E080936D0010926F00E3
:1008600080936E008093600010927C0080917300F2
:1008700081110DC080917200811151C010927F00D2
:1008800010927E0081E080937300809372008091CB
:100890007D0081110FC080E090E0A8E4B2E4809375
:1008A000650090936600A0936700B093680081E0B4
:1008B00080937D0080917E0090917F00833D910523
:1008C000F0F02091CE033091CF0328173907B8F00C
:1008D0001123A9F020E030E040E250E4609165008F
:1008E0007091660080916700909168004FD260938C
:1008F0006500709366008093670090936800809114
:100900006100909162000197909362008093610072
:10091000892B29F481E080937B00109273009E0163
:10092000A9E8B8E860D496958795969587959695A9
:1009300087954FE0489F9001499F300D112401E0B9
:10094000C217D30709F000E080917B008823A9F04B
:10095000011104C092B380E2892782BB83990DC044
:10096000AA9A959A10927B0010927F0010927E00B6
:1009700081E08093780080936C00809178008823D8
:1009800029F11123A9F020E030E040EA5FE3609113
:100990006500709166008091670090916800F5D1C4
:1009A0006093650070936600809367009093680081
:1009B00080917E0090917F00813E914038F081E0EF
:1009C00080937A001092780080936B0080917A0077
:1009D000882399F0002319F088B3805888BB829946
:1009E0000CC0AB9AC79A10927A0010927F001092B6
:1009F0007E0081E08093770004C080917700882397
:100A000019F11123A9F02DE33AE047EB5FE3609180
:100A10006500709166008091670090916800B5D183
:100A20006093650070936600809367009093680000
:100A300080917E0090917F00853A914028F081E07E
:100A40008093790010927700809179008823A9F033
:100A5000002321F092B380E4892782BB84990DC0E2
:100A6000969AA99A1092790010927F0010927E00B7
:100A700081E08093760080936A00809176008823DD
:100A8000D1F11123A9F020E030E04CE050E4609176
:100A9000650070916600809167009091680075D143
:100AA0006093650070936600809367009093680080
:100AB00080917E0090917F00813E9140E0F0109205
:100AC000760010927F0010927E0081E0809371008A
:100AD0008093700080E090E0A0E8BFEB8093650019
:100AE00090936600A0936700B093680082B38F79FB
:100AF00082BBC798C69880917E0090917F0029DEC6
:100B0000FF91EF91DF91CF91BF91AF919F918F9125
:100B10007F916F915F914F913F912F911F910F9115
:100B20000F900FBE0F901F901895CF93DF9300D0BA
:100B300000D000D0CDB7DEB7C5DA85E090E0D8DAD6
:100B40002FEF34E34CE0215030404040E1F700C04B
:100B5000000085DA73DBB0DA50917D005B83609131
:100B60006500709166008091670090916800DED109
:100B70007A83698381E08C8320E00EE110E0C12C50
:100B8000D12C7601812C912C540180E090E0212C15
:100B9000312C07C021E003C020E001C020E08D819E
:100BA0009E81309170003111FECFFC013196FE83A1
:100BB000ED8364E170E004D3892B89F780916000B4
:100BC000882329F080916F008111C9C0D5C0FFEF43
:100BD0008F1A9F0AAF0ABF0A80916D008823C1F067
:100BE000C22CD32CE12CF12C0DC0C22CD32CE12C27
:100BF000F12C822C932CA12CB12C04C0822C932C90
:100C0000A12CB12C3FEFC31AD30AE30AF30A04C0A4
:100C1000C22CD32CE12CF12C41E084169104A104C8
:100C2000B10439F4C698C29AC19882B38F7982BB55
:100C3000C79851E0C516D104E104F10479F4C69ACD
:100C4000C19AC29880916C008111959A80916B0035
:100C50008111C79A80916A008111969A80917C00D7
:100C6000882319F1211101C0E9DA0E311105A9F427
:100C70008C81882349F08AE292E0D8DA64E171E05D
:100C80008FE890E0EFD901C0D9DA9C81E1E09E279E
:100C90009C830150110921E082CF0150110909F014
:100CA00079CF21E00EE110E07ACF2111C7DA8091EF
:100CB0007D00FB818F1741F0882331F0C19AC298E3
:100CC000D1DA20917D002B83409065005090660022
:100CD000609067007090680049815A81BA01550F91
:100CE000880B990B56D1A3019201B4D0811114C085
:100CF00020E030E040E85FEBC301B201FAD1181602
:100D00000CF04ACF20E030E048EC52E4C301B201DD
:100D1000A1D018160CF442CF20E030E040E85FEBA1
:100D2000C301B20197D0811102C088DA0BC0809153
:100D30006000882321F0C301B20174DC03C0C30149
:100D4000B201E9DA609165007091660080916700F8
:100D500090916800EBD07A83698320E020CF809166
:100D60006D00811142CFC22CD32CE12CF12C822CAE
:100D7000932CA12CB12C72CF80916D0081113ECFAC
:100D8000822C932CA12CB12C54CF5058BB27AA27CE
:100D90000ED075C166D130F06BD120F031F49F3F99
:100DA00011F41EF45BC10EF4E095E7FB51C1E92F8D
:100DB00077D180F3BA17620773078407950718F095
:100DC00071F49EF58FC10EF4E0950B2EBA2FA02D75
:100DD0000B01B90190010C01CA01A0011124FF27E8
:100DE000591B99F0593F50F4503E68F11A16F040E3
:100DF000A22F232F342F4427585FF3CF46953795E2
:100E00002795A795F0405395C9F77EF41F16BA0BA6
:100E1000620B730B840BBAF09150A1F0FF0FBB1F54
:100E2000661F771F881FC2F70EC0BA0F621F731F9D
:100E3000841F48F4879577956795B795F7959E3FFA
:100E400008F0B3CF9395880F08F09927EE0F979588
:100E500087950895D9D008F481E008950CD00FC18A
:100E600007D140F0FED030F021F45F3F19F0F0C020
:100E7000511139C1F3C014D198F39923C9F3552303
:100E8000B1F3951B550BBB27AA276217730784077D
:100E900038F09F5F5F4F220F331F441FAA1FA9F333
:100EA00033D00E2E3AF0E0E830D091505040E69525
:100EB000001CCAF729D0FE2F27D0660F771F881F86
:100EC000BB1F261737074807AB07B0E809F0BB0B75
:100ED000802DBF01FF2793585F4F2AF09E3F510599
:100EE00068F0B6C000C15F3FECF3983EDCF3869536
:100EF00077956795B795F7959F5FC9F7880F911D0F
:100F00009695879597F90895E1E0660F771F881FFA
:100F1000BB1F621773078407BA0720F0621B730BAD
:100F2000840BBA0BEE1F88F7E095089504D06894FF
:100F3000B111D9C00895BCD088F09F5790F0B92F57
:100F40009927B751A0F0D1F0660F771F881F991F1E
:100F50001AF0BA95C9F712C0B13081F0C3D0B1E030
:100F60000895C0C0672F782F8827B85F39F0B93F40
:100F7000CCF3869577956795B395D9F73EF4909520
:100F80008095709561957F4F8F4F9F4F0895E8949E
:100F900009C097FB3EF490958095709561957F4FC1
:100FA0008F4F9F4F9923A9F0F92F96E9BB2793956F
:100FB000F695879577956795B795F111F8CFFAF47F
:100FC000BB0F11F460FF1BC06F5F7F4F8F4F9F4FB0
:100FD00016C0882311F096E911C0772321F09EE80E
:100FE000872F762F05C0662371F096E8862F70E074
:100FF00060E02AF09A95660F771F881FDAF7880F4E
:101000009695879597F90895990F0008550FAA0BA3
:10101000E0E8FEEF16161706E807F907C0F012160B
:101020001306E407F50798F0621B730B840B950B0E
:1010300039F40A2661F0232B242B252B21F4089563
:101040000A2609F4A140A6958FEF811D811D089500
:1010500097F99F6780E870E060E008959FEF80EC6B
:10106000089500240A94161617061806090608950E
:1010700000240A9412161306140605060895092E74
:101080000394000C11F4882352F0BB0F40F4BF2BE3
:1010900011F460FF04C06F5F7F4F8F4F9F4F089523
:1010A00057FD9058440F551F59F05F3F71F0479519
:1010B000880F97FB991F61F09F3F79F087950895FE
:1010C000121613061406551FF2CF4695F1DF08C01D
:1010D000161617061806991FF1CF8695710561053A
:1010E00008940895E894BB2766277727CB0197F9E2
:1010F00008958ADF08F48FEF08950BD0C0CFB1DFD9
:1011000028F0B6DF18F0952309F0A2CFA7CF11245D
:10111000EACFC6DFA0F3959FD1F3950F50E0551F9E
:10112000629FF001729FBB27F00DB11D639FAA273C
:10113000F00DB11DAA1F649F6627B00DA11D661F8B
:10114000829F2227B00DA11D621F739FB00DA11DAC
:10115000621F839FA00D611D221F749F3327A00D66
:10116000611D231F849F600D211D822F762F6A2F02
:1011700011249F5750408AF0E1F088234AF0EE0F87
:10118000FF1FBB1F661F771F881F91505040A9F794
:101190009E3F510570F05CCFA6CF5F3FECF3983EC9
:1011A000DCF3869577956795B795F795E7959F5FFB
:1011B000C1F7FE2B880F911D9695879597F9089595
:1011C00097FB072E16F4009406D077FD08D017D0B1
:1011D00007FC05D03EF4909581959F4F089570953A
:1011E00061957F4F0895A29FB001B39FC001A39F57
:1011F00001D0B29F700D811D1124911D0895AA1B6D
:10120000BB1B51E107C0AA1FBB1FA617B70710F0F1
:10121000A61BB70B881F991F5A95A9F78095909523
:0A122000BC01CD010895F894FFCF42
:0A122A000166031207000080BF00F8
:040000030000026493
:00000001FF
