S01700004469616C5F666F725F506F747465722E7372656310
S113000012C019C018C017C016C015C014C013C040
S113001012C011C010C00FC00EC00DC00CC00BC068
S11300200AC009C008C011241FBECFE5D4E0DEBF5A
S1130030CDBF53D033C1E4CF11BA8EE387BB8FEF6A
S113004084BB18BA15BA12BA08950F93DA01EC9169
S1130050F0E0082E02C0F595E7950A94E2F7E0FD7A
S11300603AC0E7E9FAE33197F1F700C000004C9198
S113007050E0FA0102C0F595E7958A95E2F7E0FDB4
S11300802AC0DB018D919C9111978130910581F4F7
S1130090F901408181E090E002C0880F991F0A9520
S11300A0E2F7842B808382E090E08D939C9313C0CD
S11300B0029789F4D9019C91E1E0F0E0AF0102C01C
S11300C0440F551F0A95E2F7842F809589238C935A
S11300D0DB01ED93FC930F910895CF93DF93CDB79C
S11300E0DEB76E970FB6F894DEBF0FBECDBFA4DFA8
S11300F081E090E09A8389839C838B839E838D83A4
S113010098878F839A8789879C878B879E878D871B
S1130110988B8F879A8B898B9C8B8B8BCE010396C4
S11301209E8B8D8B9D899D8F2E892E8F8D8D8B8F90
S11301309E8D9C8F2B8D298F8C8D8A8F298C3A8C48
S11301402E0195E0490E511C4F8A588E5E0127E01E
S1130150A20EB11CEF88F88C3E0189E0680E711C78
S1130160CA2CDB2C862C972CB09BFECF04E010E02D
S113017025E330E040E350E0BE016F5F7F4F80E055
S113018090E063DF03E010E025E330E040E350E07B
S1130190622D732D81E090E058DF02E010E025E34A
S11301A030E040E350E06E2D7F2D82E090E04DDFA3
S11301B001E010E025E330E040E350E06C2D7D2DBC
S11301C083E090E042DF00E010E025E330E040E32C
S11301D050E0682D792D84E090E037DF05E010E0F1
S11301E025E330E046E350E0BE01655F7F4F86E0E3
S11301F090E02BDF28E330E046E350E0BE01635F8C
S11302007F4F87E090E021DF04E010E028E330E056
S113021040E350E0BE01615F7F4F85E090E015DF71
S113022003E010E028E330E040E350E0BE016F5EFD
S11302307F4F86E090E009DF02E010E028E330E041
S113024040E350E0BE016D5E7F4F87E090E0FDDE4D
S1130250AC998ACFAB9988CFAA9984CFA99B7CCF3C
S1130260A89974CFAD9970CFC5996ACFC49B66CF56
S1130270C39960CFC2995ACF18BA15BA12BAC19AA3
S1130280C49AA99A9FE322E48FE0915020408040D1
S1130290E1F700C00000C498A99844CFF894FFCFB8
S9030000FC
