S015000043686573735F762E322E312E302E7372656327
S113000012C021C020C01FC01EC01DC01CC01BC008
S11300101AC019C018C017C016C015C014C013C028
S113002012C011C010C011241FBECFE5D4E0DEBF42
S1130030CDBF20E0A0E6B0E001C01D92AA36B20711
S1130040E1F79ED07DC1DCCF8CEB87BB8CE384BB16
S113005081E681BB18BA15BA12BA089518161906A2
S113006044F420E030E000002F5F3F4F28173907A9
S1130070D1F708950F931F93CF93DF9318161906A2
S113008054F48C01C0E0D0E088E592E0E7DF2196EB
S1130090C017D107C9F7DF91CF911F910F91089530
S11300A085E090E0E7DF089583E090E0E3DF0895E2
S11300B084E088BBF5DF8CE088BBF2DF88E088BB96
S11300C0EFDF88E188BBECDF80E188BBE9DF80E318
S11300D088BBE6DF80E288BBE3DF84E288BBE0DF45
S11300E018BA089580E288BBDBDF80E388BBD8DFE1
S11300F080E188BBD5DF88E188BBD2DF88E088BB9C
S1130100CFDF8CE088BBCCDF84E088BBC9DF84E22E
S113011088BBC6DF18BA089584E085BBC5DF8CE0D0
S113012085BBC2DF88E085BBBFDF88E185BBBCDF60
S113013080E185BBB9DF80E385BBB6DF80E285BBA8
S1130140B3DF84E285BBB0DF15BA089580E285BBD6
S1130150ABDF80E385BBA8DF80E185BBA5DF88E159
S113016085BBA2DF88E085BB9FDF8CE085BB9CDF7D
S113017084E085BB99DF84E285BB96DF15BA0895D8
S113018063DF82B3806682BB01E010E00F2EF4EFE0
S1130190AF2EF02DBB24B3940F2EF8E8CF2EF02D04
S11301A00F2EF3E1DF2EF02D0F2EF7E8EF2EF02DBA
S11301B00F2EF3E1FF2EF02D2FE986E891E0215078
S11301C080409040E1F700C000008091620090916F
S11301D06300019709F49598B69912C02FEB87E252
S11301E099E0215080409040E1F700C00000B699AA
S11301F007C01093690000936800B69903C00EC04D
S1130200B69B05C01092690010926800969A80917E
S1130210680090916900019709F064C096988399E9
S113022061C083E294EF0197F1F700C00000839965
S113023059C09FE926E881E0915020408040E1F7D1
S113024000C000008091640090916500892B59F4EE
S1130250CC2DDD2D7BDF879B02C02197D9F710932E
S113026065000093640082993DC087993BC083E296
S113027094EF0197F1F700C00000829933C0879989
S113028031C08091600090916100892B09F046C0D3
S1130290909A109361000093600040C0CA2DDB2D3A
S11302A007DF989B02C02197D9F71093670000934A
S11302B06600819917C08BE792E90197F1F700C0B6
S11302C0000081990FC09098C79A9FE32EE785E0BC
S11302D0915020408040E1F700C00000109363007B
S11302E000936200849968CF83ED90E30197F1F75E
S11302F000C0000084990EC0B0991EC017C0B09B06
S113030015C00ADF2197D9F711C0999B03C0EADE13
S11303102197D9F712BA12BA11BA4ECF809166005A
S113032090916700892B09F4B9CFC3CF999BF2CF81
S1130330D9DECE2DDF2DE9CFEFDECE2DDF2DDFCFC1
S1070340F894FFCF5B
S9030000FC
