S01C000046697265706C6163655F666F725F506F747465722E73726563FA
S113000012C021C020C01FC01EC01DC01CC01BC008
S11300101AC019C018C017C016C015C014C013C028
S113002012C011C010C011241FBECFE5D4E0DEBF42
S1130030CDBF20E0A0E6B0E001C01D92A337B20717
S1130040E1F768D02EC3DCCF87B38F6387BB87B358
S11300508F7387BB88B3807C88BB81B3807E81BB70
S113006081B3806681BB82B38F7982BB84B38F6393
S113007084BB85B3807C85BB08951816190644F4A7
S113008020E030E000002F5F3F4F28173907D1F7F9
S113009008950F931F93CF93DF931816190654F402
S11300A08C01C0E0D0E08CE291E0E7DF2196C0173C
S11300B0D107C9F7DF91CF911F910F910895CF9385
S11300C082E088BB85E090E0E4DF86E088BB85E0E1
S11300D090E0DFDF84E088BB85E090E0DADFCCE00D
S11300E0C8BB85E090E0D5DF88E088BB85E090E080
S11300F0D0DFC8BB85E090E0CCDF80E188BB85E041
S113010090E0C7DF82E188BB85E090E0C2DF18BAE7
S1130110CF91089599DFD1E0CD2F809161008111B5
S11301209DC2809B0CC0819B0AC0829B08C0839B9C
S113013006C0849B04C0B69B02C0B799EECF89E683
S113014098E10197F1F700C00000809161008111EE
S113015085C2809B0CC0819B0AC0829B08C0839B84
S113016006C0849B04C0B69B02C0B799D6CFC09387
S1130170610074C2959A85B38F6385BBC59A9FE964
S113018026E881E0915020408040E1F700C0000063
S113019085B3807C85BBC59892DF91DF90DF8FDFCC
S11301A08EDFC09360009D9B19C09C9B17C09B9BD6
S11301B015C09A9B13C0999B11C0989B0FC0B59B07
S11301C00DC09FE52AEE80E0915020408040E1F789
S11301D000C0000085B3807C85BBC598879941C069
S11301E09FED23E984E0915020408040E1F700C076
S11301F00000879936C01092700010926F00109220
S11302006A0010926900109266001092650087EAF5
S113021091E60197F1F700C00000AC9A87EA91E6F5
S11302200197F1F700C00000AC988FE493EC0197BC
S1130230F1F700C00000A99A87EA91E60197F1F767
S113024000C00000A9988FE493EC0197F1F700C077
S11302500000C59A87EA91E60197F1F700C0000013
S1130260C59880916200882309F467C09D9965C090
S11302709C9B63C09B9961C09A995FC0999B5DC028
S113028098995BC0B59B59C0969A85B38D7E85BB02
S1130290C5988BE792E90197F1F700C0000085B398
S11302A0826185BBC59A83E294EF0197F1F700C0A0
S11302B0000085B3826185BBC59A8BE792E90197FB
S11302C0F1F700C0000085B38D7E85BBC59885B36A
S11302D08D7E85BBC5988BE792E90197F1F700C045
S11302E0000085B3826185BBC59A83E294EF0197D0
S11302F0F1F700C0000085B3826185BBC59A8BE726
S113030092E90197F1F700C0000085B38D7E85BBAB
S1130310C5989FED23E984E0915020408040E1F7A7
S113032000C00000C09A9FE729EA83E09150204072
S11303308040E1F700C00000C098809935C089E68C
S113034098E10197F1F700C0000080992DC09D9BB2
S113035017C080917200882309F485C180917100CF
S1130360811184C1AD98C0937100109272009FE90D
S113037026E881E0915020408040E1F700C0000071
S1130380809912C08091720081110EC0AD9AC09301
S11303907200109271009FE926E881E0915020409C
S11303A08040E1F700C00000819939C089E698E1F6
S11303B00197F1F700C00000819931C09C9B19C0DE
S11303C080917000882309F453C180916F008111DA
S11303D052C1AC9810926400C0936F0010927000E8
S11303E09FE926E881E0915020408040E1F700C079
S11303F00000819914C080917000811110C0AC9AE2
S1130400C0936400C093700010926F009FE926E8C7
S113041081E0915020408040E1F700C000008299C3
S113042035C081E398EC0197F1F700C00000829990
S11304302DC09B9B17C080916E00882309F41DC1B9
S113044080916D0081111CC1AB98C0936D00109216
S11304506E009FE926E881E0915020408040E1F75A
S113046000C00000829912C080916E0081110EC0FC
S1130470AB9AC0936E0010926D009FE926E881E06C
S1130480915020408040E1F700C00000839935C0BE
S113049089E698E10197F1F700C0000083992DC027
S11304A09A9B17C080916C00882309F4EBC080915B
S11304B06B008111EAC0AA98C0936B0010926C0083
S11304C09FE926E881E0915020408040E1F700C098
S11304D00000839912C080916C0081110EC0AA9A09
S11304E0C0936C0010926B009FE926E881E0915064
S11304F020408040E1F700C0000084993CC089E6B8
S113050098E10197F1F700C00000849934C0999BE9
S113051019C080916A00882309F4B9C080916900E8
S11305208111B8C0A99810926300C0936900109219
S11305306A009FE926E881E0915020408040E1F77D
S113054000C00000849917C080916A00811113C013
S1130550A99A809164008111C0936300C0936A00DA
S1130560109269009FE926E881E091502040804084
S1130570E1F700C00000B69935C089E698E101971B
S1130580F1F700C00000B6992DC0989B17C0809168
S11305906800882309F482C08091670081117CC0BF
S11305A0A898C0936700109268009FE926E881E04C
S11305B0915020408040E1F700C00000B69912C07D
S11305C08091680081110EC0A89AC09368001092AF
S11305D067009FE926E881E0915020408040E1F7E0
S11305E000C00000B79999CD89E698E10197F1F729
S11305F000C00000B79991CDB59B16C080916600EC
S1130600882391F08091650081110EC0C598D09324
S11306106500109266009FE926E881E09150204031
S11306208040E1F700C00000B79977CD8091680061
S1130630811173CDC59A809163008111D0936200BA
S1130640D0936600109265009FE926E881E09150FE
S113065020408040E1F700C000005FCD8091600041
S11306608111A1CD87CD809B91CE9ECE80B39CCEAF
S1130670819BC5CED4CE80B3D2CE829BF9CE06CF99
S113068080B304CF839B2BCF38CF80B336CF849BEA
S11306905FCF71CF80B36FCF86B3A4CFB69B94CF17
S10906A0A1CFF894FFCF86
S9030000FC
