:1000000012C02CC02BC02AC029C028C027C026C0BF
:1000100025C08FC023C022C021C020C01FC01EC069
:100020001DC01CC01BC011241FBECFE5D4E0DEBF25
:10003000CDBF10E0A0E6B0E0E0E3F5E002C005903F
:100040000D92A436B107D9F720E0A4E6B0E001C0D4
:100050001D92AD36B207E1F79DD168C2D1CF80E4E1
:1000600087BB8CE384BB82EF81BB18BA15BA12BA86
:10007000089583E083BF81E089BF789408958091DB
:100080006800882379F18091690090916A00019657
:1000900090936A00809369008230910549F481E071
:1000A00090E090936700809366008093640018C08E
:1000B0008630910551F482E090E090936700809340
:1000C000660081E0809364000BC0089749F483E0E8
:1000D00090E0909367008093660081E080936400D5
:1000E0001092680008951816190644F420E030E0D4
:1000F00000002F5F3F4F28173907D1F708950F935E
:100100001F93CF93DF931816190654F48C01C0E0A7
:10011000D0E08CE291E0E7DF2196C017D107C9F764
:10012000DF91CF911F910F91089582E090E0E7DF7A
:1001300008951F920F920FB60F9211242F933F93A1
:100140004F935F936F937F938F939F93AF93BF93DF
:1001500080916B0090916C00019690936C0080935D
:100160006B0020916600309167002230310579F0F4
:1001700023303105A9F02130310521F58F70992701
:10018000892B01F595B384E0892785BB1BC083705B
:100190009927892BB9F495B384E0892785BB12C0D0
:1001A000AA9A2FEF84E39CE0215080409040E1F731
:1001B00000C00000AA98AB98F89419BE1092650090
:1001C000109260008091690090916A00892BE9F497
:1001D00040916B0050916C009A01ADECBCEC9AD14F
:1001E00096958795929582958F7089279F7089271C
:1001F00068E2689F9001699F300D112442175307F0
:1002000021F495B384E0892785BB80916B009091A0
:100210006C008D32914028F0809165008111109220
:10022000650080916400882349F010926C00109260
:100230006B0081E0809365001092640080916B00F8
:1002400090916C00893E934040F010926A001092A9
:10025000690010926C0010926B00BF91AF919F915A
:100260008F917F916F915F914F913F912F910F905F
:100270000FBE0F901F90189580E182BB56DF80E380
:1002800082BB53DF80E282BB50DF80E682BB4DDF62
:1002900080E482BB4ADF80EC82BB47DF80E882BB20
:1002A00044DF80E982BB41DF12BA08950F931F93A8
:1002B000CF93DF93FC012081318121303105E9F4B6
:1002C000209161003091620012161306B4F411827D
:1002D000108280916100909162000197909362007A
:1002E000809361001616170644F48B01C0E0D0E03D
:1002F000C3DF2196C017D107D9F7DF91CF911F91A6
:100300000F9108950F93DA01EC91F0E0082E02C0EE
:10031000F595E7950A94E2F7E0FD3AC0E7E9FAE3DC
:100320003197F1F700C000004C9150E0FA0102C093
:10033000F595E7958A95E2F7E0FD2AC0DB018D91FE
:100340009C9111978130910581F4F901408181E000
:1003500090E002C0880F991F0A95E2F7842B8083F2
:1003600082E090E08D939C9313C0029789F4D901A9
:100370009C91E1E0F0E0AF0102C0440F551F0A95E7
:10038000E2F7842F809589238C93DB01ED93FC9316
:100390000F910895CF93DF93CDB7DEB72E970FB6A9
:1003A000F894DEBF0FBECDBF5ADE63DE81E090E081
:1003B0009A8389839C838B839E838D8398878F8385
:1003C0009A8789879C878B879E878D87AB9AE12C3C
:1003D000F12CAA24A394B12CCC24C394D12C712C3D
:1003E000812C9924939414C0EC2CFD2C11C0EC2C7E
:1003F000FD2C0EC0EC2CFD2C0BC0EC2CFD2C08C0F1
:10040000EC2CFD2C05C0EC2CFD2C02C0EC2CFD2CA2
:10041000809160008823D9F080916500882311F0D5
:10042000AA98F6CF999908C08BE49DE10197F1F75E
:1004300000C00000999B23DE989909C08BE49DE1E0
:100440000197F1F700C00000989B9092680005E0CA
:1004500010E025E330E046E350E0BE01655F7F4FEA
:1004600085E090E04FDF04E010E025E330E046E374
:1004700050E0BE01635F7F4F87E090E043DFB099BB
:1004800004C091E0E916F10419F69C99ADCF9D994D
:10049000AECFC69A63E270E0CE01019607DFB19954
:1004A00005C06BE170E0CE01039600DFB29905C094
:1004B0006BE170E0CE010596F9DEB39905C06BE102
:1004C00070E0CE010796F2DEB49905C06BE170E0F2
:1004D000CE010996EBDEB1998DCFB2998ECFB3994B
:1004E0008FCFB49990CF21E0A216B10409F08ECF3E
:1004F000919A8FE59AEE20E0815090402040E1F7FC
:1005000000C000009198C69817BAEC2CFD2CA72CBF
:10051000B82C7ECFA29FB001B39FC001A39F01D092
:10052000B29F700D811D1124911D0895F894FFCF85
:0405300001040000C2
:00000001FF
