S01500004D61696E5F61746D65676131362E7372656355
S11300000C942A000C943C000C943C000C943C008E
S11300100C943C000C943C000C943C000C943C006C
S11300200C943C000C943C000C943C000C9459003F
S11300300C943C000C943C000C943C000C943C004C
S11300400C943C000C943C000C943C000C943C003C
S11300500C943C0011241FBECFE5D4E0DEBFCDBF1D
S113006020E0A0E6B0E001C01D92A838B207E1F795
S11300700E94CB000C94AD020C94000081B38370F9
S113008081BB84B3807F84BBA79AAF988AB38770FF
S11300908ABB8AB387608ABB8BB3887F8BBB87B3E9
S11300A0817F87BB87B3816987BB88B38E7688BB22
S11300B008951F920F920FB60F9211242F938F93CE
S11300C09F938CB1853009F4C49A809186009091F5
S11300D08700019721F180917C0090917D00019728
S11300E0F1F080917800909179000197C1F08091AE
S11300F0760090917700019791F08091740090912F
S11301007500019761F080917000909171000197E2
S113011031F080916E0090916F000197B9F48CB129
S1130120833021F4D89A8BB3897F8BBB8CB1813017
S113013021F4D99A8BB38A7F8BBB8CB1823021F4A2
S1130140DA9A8BB38C7F8BBB8CB103C08BB3887F63
S11301508BBB8CB18430B9F48091620090916300C0
S1130160892B89F4C09A2FEF84E39CE021508040CE
S11301709040E1F700C00000C09881E090E09093C7
S11301806300809362009F918F912F910F900FBE17
S11301900F901F9018950E943E0082E290E00E940A
S11301A0A00278948BB3887F8BBB2FEF89E698E10C
S11301B0215080409040E1F700C0000001E010E0D1
S11301C0D02FC12F8091780090917900019781F50B
S11301D08091720090917300019751F580916E00A7
S11301E090916F00019721F52FEF8DE399E4215051
S11301F080409040E1F700C0000080917800909129
S113020079000197D9F4809172009091730001975D
S1130210A9F480916E0090916F00019779F4C79AC8
S11302208BB3887F8BBBD0936000C093610006C002
S1130230CD9903C0869901C09C99C79887990DC030
S11302408091860090918700892B39F484E30E9481
S1130250A902D0938600C093870098990DC080911D
S1130260840090918500892B39F485E30E94A902CA
S1130270D0938400C093850099990DC08091820029
S113028090918300892B39F486E30E94A902D093CC
S11302908200C09383009A990DC080918000909150
S11302A08100892B39F487E30E94A902D09380004E
S11302B0C09381009B990DC080917E0090917F0036
S11302C0892B39F488E30E94A902D0937E00C0935D
S11302D07F00CB9918C02FEF81EE94E0215080402D
S11302E09040E1F700C00000CB990DC080917C00E4
S11302F090917D00892B39F483E30E94A902D09365
S11303007C00C0937D00CC9918C02FEF81EE94E05F
S1130310215080409040E1F700C00000CC990DC00E
S113032080917A0090917B00892B39F484E60E94B5
S1130330A902D0937A00C0937B00CD9918C02FE70F
S11303408CEF9AE0215080409040E1F700C000001B
S1130350CD990DC08091780090917900892B39F462
S113036082E30E94A902D0937800C0937900CE99C9
S113037018C02FEF81EE94E0215080409040E1F7C7
S113038000C00000CE990DC0809176009091770056
S1130390892B39F481E30E94A902D0937600C0939B
S11303A07700CF9923C02FEF81EE94E02150804055
S11303B09040E1F700C00000CF9918C0809174000C
S11303C090917500892B91F480E70E94A902D09343
S11303D07400C0937500AF9A2FE78DE995E0215022
S11303E080409040E1F700C00000AF98869918C0A3
S11303F02FEF82E597E0215080409040E1F700C064
S1130400000086990DC08091720090917300892B31
S113041039F489E30E94A902D0937200C093730057
S11304209D990DC08091700090917100892B39F4D1
S113043081E60E94A902D0937000C09371009C9938
S11304400DC080916E0090916F00892B39F482E683
S11304500E94A902D0936E00C0936F008091600047
S113046090916100019709F0ADCEB3990DC08091D0
S11304706C0090916D00892B39F48EE60E94A902DC
S1130480D0936C00C0936D0082990DC08091680078
S113049090916900892B39F48CE60E94A902D093CB
S11304A06800C093690083990DC080916A0090919F
S11304B06B00892B39F48DE60E94A902D0936A005F
S11304C0C0936B00B2991CC02FE78BE898E02150D1
S11304D080409040E1F700C00000B29911C08091C3
S11304E0660090916700892B59F485E60E94A90261
S11304F0D0936600C0936700109265001092640068
S1130500B19960CE2FEF86E191E121508040904077
S1130510E1F700C00000B19955CE8091640090913C
S11305206500892B09F04ECE87E60E94A90200934C
S1130530640010936500109267001092660042CE2A
S113054090BD89B988E18AB9579A599A8EE880BDD5
S111055008955D9BFECF8CB90895F894FFCFFB
S9030000FC
