:1000000012C021C020C01FC01EC01DC01CC01BC00C
:100010001AC027C018C017C016C015C014C013C01E
:1000200012C011C010C011241FBECFE5D4E0DEBF46
:10003000CDBF20E0A0E6B0E001C01D92A236B2071D
:10004000E1F738D089C2DCCF85E083BF789408958A
:100050008A9A929884B38E6384BB85B3817C85BB76
:1000600008951F920F920FB60F9211242F938F9322
:100070009F93809160009091610001969093610040
:10008000809360008D3B924068F0929A8FE39DE0F0
:1000900023E0815090402040E1F700C0000092989A
:1000A00011BAF8949F918F912F910F900FBE0F90DE
:1000B0001F901895CF93DF9300D000D01F92CDB73B
:1000C000DEB7C6DF1BD2C0DF8FE097E20197F1F702
:1000D00000C0000000E010E0FF24F394D12CE12CDC
:1000E000BE016F5F7F4F86E2A3D181110DC0CE01AB
:1000F0000196C9D1811108C08A81883E19F4A99A54
:10010000F9BE02C0A9989298BE016F5F7F4F86E248
:100110008FD18111E5CFCE010196B5D18111E0CF0C
:100120008A81893709F046C00F5F1F4F03301105E0
:1001300029F13CF40130110559F00230110599F014
:10014000CFCF0430110529F10530110569F1C8CF71
:10015000AD9A9FEF23ED80E3915020408040E1F77E
:1001600000C00000BDCFAC9A9FEF23ED80E391501B
:1001700020408040E1F700C00000B2CFAB9A9FEF73
:1001800023ED80E3915020408040E1F700C0000063
:10019000A7CFAA9A9FEF23ED80E3915020408040A3
:1001A000E1F700C000009CCF85B3817C85BB0D2D9D
:1001B0001E2D96CF85B3837C85BB92CFCF93C62F60
:1001C000A898880F8E77BFD18C2FBDD1A89ACF91D8
:1001D0000895A898880F8E778068B5D1B8D1A89A6D
:1001E00008956FE081E0EADF0895CF93DF93D82F81
:1001F000C62FEFDF682F6C2B8D2FE0DFDF91CF91C3
:100200000895CF93DF93D82FC62FE3DFC095682FD3
:100210006C238D2FD3DFDF91CF9108957F928F9242
:100220009F92AF92BF92CF92DF92EF92FF920F9385
:100230001F93CF93DF93B82EC62FD72FC42EA22E95
:10024000932E78018CE0B81609F4A6C0EEE0BE1635
:1002500009F4BFC060E882E0B1DF60E884E0D1DF8C
:1002600060E88AE0C2DF60E081E0A8DFD12CC11441
:10027000D10409F1712C812C10C00F2EF0E37F2ED8
:10028000F02D0F2EF7E78F2EF02D07C068947724FE
:1002900074F80F2EF2E18F2EF02D0C2F1D2FC0E0E1
:1002A000D0E0F80161918F0189E088DF2196CC15BB
:1002B000DD05B8F302C0712C812C6B2D81E07EDF4F
:1002C000FCE0BF1203C060E88DE08FDF84E081DFD7
:1002D000182FCFECD7E0072D016006C084E079DF4E
:1002E000182F219709F487C0912F9023B9F388C064
:1002F000882D81701823C1E009F4C0E08CE0B812A9
:1003000088C08AE066DFD82F8CE063DF282F277053
:1003100079F08D2F90E00197880F991F880F991F12
:10032000880F991F820F911DF701918380830BC065
:100330008D2F90E0880F991F880F991F880F991FA4
:10034000F70191838083DD2349F0D13108F0D0E1BA
:10035000ED2EF12CE114F10421F45BC0EE24E394C2
:10036000F12CCA2CD92C00E010E089E032DFF60134
:1003700081936F010F5F1F4F0E151F05B0F349C02A
:100380006CE081E01BDF0F2EF0E37F2EF02D0F2EAF
:10039000F7E78F2EF02D97CF67EF82E00FDF60E851
:1003A00084E02FDF60E88AE020DF60E081E006DFA4
:1003B000D12CC114D10409F060CFE2CF6EE081E00E
:1003C000FDDE6894772474F80F2EF2E18F2EF02D65
:1003D0007DCF62E982E0F2DE60E884E012DF60E86F
:1003E0008AE003DF60E081E0E9DED12CC114D104B2
:1003F00009F04CCFE3CF60E88DE003DFC2E009C035
:1004000060E88DE0FEDE86E0E4DE8B7109F470CFFB
:10041000C2E08C2FDF91CF911F910F91FF90EF9051
:10042000DF90CF90BF90AF909F908F907F90089576
:10043000EF92FF920F931F93CF93DF9300D0CDB72E
:10044000DEB7182F7B0167E08DE0B8DEF70110837F
:100450008E010F5F1F4F970141E0B7018CE0DEDE98
:10046000811107C029813A812031310519F082E0DC
:1004700001C082E00F900F90DF91CF911F910F91FB
:10048000FF90EF900895EF92FF920F931F93CF93F9
:10049000DF9300D0CDB7DEB77C0160E08DE08EDE6B
:1004A00083E9F701808380E281838E010F5F1F4F14
:1004B000970142E0B7018CE0B1DE81110EC0F70177
:1004C000A7014C5F5F4F90E021919227E417F50759
:1004D000D9F7F7012481291382E00F900F90DF9163
:1004E000CF911F910F91FF90EF90089584E171DEFD
:1004F000837019F463E084E178DE089580E01DD014
:10050000A09AA89889EF90E00197F1F700C0000049
:1005100068DE6DE88AE252DE6EE38BE24FDE6EE16A
:100520008DE24CDE60E08CE249DE60E485E146DE8F
:100530006DE381E143DEDADF089597B39C6297BBF8
:1005400080658DB908958FB9779BFECF08951FB848
:0C055000779BFECF8FB10895F894FFCF89
:00000001FF
